{
  "contractName": "Lottery",
  "abi": [
    {
      "inputs": [],
      "payable": false,
      "stateMutability": "nonpayable",
      "type": "constructor"
    },
    {
      "anonymous": false,
      "inputs": [
        {
          "indexed": false,
          "name": "adr",
          "type": "address"
        },
        {
          "indexed": false,
          "name": "value",
          "type": "uint256"
        },
        {
          "indexed": false,
          "name": "start",
          "type": "uint256"
        },
        {
          "indexed": false,
          "name": "end",
          "type": "uint256"
        }
      ],
      "name": "buyCards",
      "type": "event"
    },
    {
      "anonymous": false,
      "inputs": [
        {
          "indexed": false,
          "name": "adr",
          "type": "address"
        },
        {
          "indexed": false,
          "name": "id",
          "type": "uint256"
        },
        {
          "indexed": false,
          "name": "level",
          "type": "uint256"
        },
        {
          "indexed": false,
          "name": "bonus",
          "type": "uint256"
        }
      ],
      "name": "win",
      "type": "event"
    },
    {
      "anonymous": false,
      "inputs": [
        {
          "indexed": false,
          "name": "adr",
          "type": "address"
        },
        {
          "indexed": false,
          "name": "amount",
          "type": "uint256"
        }
      ],
      "name": "sendBonusLog",
      "type": "event"
    },
    {
      "constant": false,
      "inputs": [],
      "name": "getKeysLeft",
      "outputs": [
        {
          "name": "",
          "type": "uint256"
        }
      ],
      "payable": false,
      "stateMutability": "nonpayable",
      "type": "function"
    },
    {
      "constant": false,
      "inputs": [
        {
          "name": "id",
          "type": "uint256"
        }
      ],
      "name": "getCards",
      "outputs": [
        {
          "name": "",
          "type": "bool"
        },
        {
          "name": "",
          "type": "uint256"
        },
        {
          "name": "",
          "type": "uint256"
        }
      ],
      "payable": false,
      "stateMutability": "nonpayable",
      "type": "function"
    },
    {
      "constant": false,
      "inputs": [
        {
          "name": "randomNum",
          "type": "uint256"
        }
      ],
      "name": "getLevel",
      "outputs": [
        {
          "name": "",
          "type": "uint256"
        }
      ],
      "payable": false,
      "stateMutability": "nonpayable",
      "type": "function"
    },
    {
      "constant": false,
      "inputs": [],
      "name": "getBalances",
      "outputs": [
        {
          "name": "",
          "type": "uint256"
        }
      ],
      "payable": false,
      "stateMutability": "nonpayable",
      "type": "function"
    },
    {
      "constant": false,
      "inputs": [],
      "name": "topUp",
      "outputs": [
        {
          "name": "",
          "type": "uint256"
        },
        {
          "name": "",
          "type": "uint256"
        }
      ],
      "payable": true,
      "stateMutability": "payable",
      "type": "function"
    },
    {
      "constant": false,
      "inputs": [
        {
          "name": "id",
          "type": "uint256"
        }
      ],
      "name": "scratchCard",
      "outputs": [
        {
          "name": "",
          "type": "uint256"
        },
        {
          "name": "",
          "type": "uint256"
        },
        {
          "name": "",
          "type": "uint256"
        }
      ],
      "payable": false,
      "stateMutability": "nonpayable",
      "type": "function"
    },
    {
      "constant": false,
      "inputs": [
        {
          "name": "amount",
          "type": "uint256"
        }
      ],
      "name": "sendBonus",
      "outputs": [],
      "payable": true,
      "stateMutability": "payable",
      "type": "function"
    },
    {
      "constant": false,
      "inputs": [
        {
          "name": "amount",
          "type": "uint256"
        }
      ],
      "name": "withdraw",
      "outputs": [],
      "payable": true,
      "stateMutability": "payable",
      "type": "function"
    }
  ],
  "bytecode": "0x6080604052620186a0600055662386f26fc10000600155600060025534801561002757600080fd5b5033600660006101000a81548173ffffffffffffffffffffffffffffffffffffffff021916908373ffffffffffffffffffffffffffffffffffffffff1602179055506003604080519081016040528060018152602001680a4cc799563c38000081525090806001815401808255809150509060018203906000526020600020906002020160009091929091909150600082015181600001556020820151816001015550505060036040805190810160405280600a8152602001678ac7230489e800008152509080600181540180825580915050906001820390600052602060002090600202016000909192909190915060008201518160000155602082015181600101555050506003604080519081016040528060648152602001670de0b6b3a7640000815250908060018154018082558091505090600182039060005260206000209060020201600090919290919091506000820151816000015560208201518160010155505050600360408051908101604052806103e8815260200167016345785d8a0000815250908060018154018082558091505090600182039060005260206000209060020201600090919290919091506000820151816000015560208201518160010155505050600360408051908101604052806107d0815260200166b1a2bc2ec5000081525090806001815401808255809150509060018203906000526020600020906002020160009091929091909150600082015181600001556020820151816001015550505060036040805190810160405280612710815260200166470de4df82000081525090806001815401808255809150509060018203906000526020600020906002020160009091929091909150600082015181600001556020820151816001015550505060036040805190810160405280614e208152602001662386f26fc10000815250908060018154018082558091505090600182039060005260206000209060020201600090919290919091506000820151816000015560208201518160010155505050610b93806103286000396000f30060806040526004361061008d576000357c0100000000000000000000000000000000000000000000000000000000900463ffffffff168062113e081461009257806304ed02f6146100bd5780630a2d5e5f146101105780632e1a7d4d1461013057806333563d0514610150578063669937631461019f57806386481d40146101ca578063dc29f1de1461020b575b600080fd5b34801561009e57600080fd5b506100a7610230565b6040518082815260200191505060405180910390f35b3480156100c957600080fd5b506100e860048036038101908080359060200190929190505050610277565b6040518084151515158152602001838152602001828152602001935050505060405180910390f35b61012e60048036038101908080359060200190929190505050610342565b005b61014e600480360381019080803590602001909291905050506104d6565b005b34801561015c57600080fd5b5061017b6004803603810190808035906020019092919050505061057d565b60405180848152602001838152602001828152602001935050505060405180910390f35b3480156101ab57600080fd5b506101b46108b6565b6040518082815260200191505060405180910390f35b3480156101d657600080fd5b506101f5600480360381019080803590602001909291905050506108bf565b6040518082815260200191505060405180910390f35b610213610933565b604051808381526020018281526020019250505060405180910390f35b6000600560003373ffffffffffffffffffffffffffffffffffffffff1673ffffffffffffffffffffffffffffffffffffffff16815260200190815260200160002054905090565b60008060006004600085815260200190815260200160002060000160009054906101000a900473ffffffffffffffffffffffffffffffffffffffff1673ffffffffffffffffffffffffffffffffffffffff163373ffffffffffffffffffffffffffffffffffffffff16141561032957600161030760046000878152602001908152602001600020600101546108bf565b600460008781526020019081526020016000206002015492509250925061033b565b60008060018191508090509250925092505b9193909250565b600560003373ffffffffffffffffffffffffffffffffffffffff1673ffffffffffffffffffffffffffffffffffffffff1681526020019081526020016000205481111580156103915750600081115b151561039c57600080fd5b80600560003373ffffffffffffffffffffffffffffffffffffffff1673ffffffffffffffffffffffffffffffffffffffff1681526020019081526020016000205403600560003373ffffffffffffffffffffffffffffffffffffffff1673ffffffffffffffffffffffffffffffffffffffff168152602001908152602001600020819055507f3a0d0d76efbdc4a6ea0098365f9a724d3e9c4af5def6b91a7ec486971083ae403382604051808373ffffffffffffffffffffffffffffffffffffffff1673ffffffffffffffffffffffffffffffffffffffff1681526020018281526020019250505060405180910390a13373ffffffffffffffffffffffffffffffffffffffff166108fc829081150290604051600060405180830381858888f193505050501580156104d2573d6000803e3d6000fd5b5050565b600660009054906101000a900473ffffffffffffffffffffffffffffffffffffffff1673ffffffffffffffffffffffffffffffffffffffff163373ffffffffffffffffffffffffffffffffffffffff161415156105325761057a565b3373ffffffffffffffffffffffffffffffffffffffff166108fc829081150290604051600060405180830381858888f19350505050158015610578573d6000803e3d6000fd5b505b50565b6000806000806004600086815260200190815260200160002060020154600014801561060a57506004600086815260200190815260200160002060000160009054906101000a900473ffffffffffffffffffffffffffffffffffffffff1673ffffffffffffffffffffffffffffffffffffffff163373ffffffffffffffffffffffffffffffffffffffff16145b151561061557600080fd5b6001600460008781526020019081526020016000206002018190555061065060046000878152602001908152602001600020600101546108bf565b905060008114151561082157600160036001830381548110151561067057fe5b9060005260206000209060020201600001540360036001830381548110151561069557fe5b9060005260206000209060020201600001819055507facc3f9ea8e302f014382864700f10bf08780aade974a92b16bb53941290250233386836003600186038154811015156106e057fe5b906000526020600020906002020160010154604051808573ffffffffffffffffffffffffffffffffffffffff1673ffffffffffffffffffffffffffffffffffffffff16815260200184815260200183815260200182815260200194505050505060405180910390a160036001820381548110151561075a57fe5b906000526020600020906002020160010154600560003373ffffffffffffffffffffffffffffffffffffffff1673ffffffffffffffffffffffffffffffffffffffff1681526020019081526020016000205401600560003373ffffffffffffffffffffffffffffffffffffffff1673ffffffffffffffffffffffffffffffffffffffff16815260200190815260200160002081905550848160036001840381548110151561080457fe5b9060005260206000209060020201600101549350935093506108ae565b7facc3f9ea8e302f014382864700f10bf08780aade974a92b16bb53941290250233386600080604051808573ffffffffffffffffffffffffffffffffffffffff1673ffffffffffffffffffffffffffffffffffffffff16815260200184815260200183815260200182815260200194505050505060405180910390a1846000808191508090509350935093505b509193909250565b60008054905090565b6000806000809150600090505b60038054905081101561092757818411801561090a57506003818154811015156108f257fe5b90600052602060002090600202016000015482018411155b1561091a5760018101925061092c565b80806001019150506108cc565b600092505b5050919050565b60008060008060006001543481151561094857fe5b049250600054831115151561095c57600080fd5b600091505b82821015610a36576109766001600054610ad0565b90506001600054036000819055506060604051908101604052803373ffffffffffffffffffffffffffffffffffffffff1681526020018281526020016000815250600460008054815260200190815260200160002060008201518160000160006101000a81548173ffffffffffffffffffffffffffffffffffffffff021916908373ffffffffffffffffffffffffffffffffffffffff16021790555060208201518160010155604082015181600201559050508180600101925050610961565b7fa57a122c6d26d486d1ba3529a157ae658b17b2a4f97130321410ec22f370a06733346001866000540103600054604051808573ffffffffffffffffffffffffffffffffffffffff1673ffffffffffffffffffffffffffffffffffffffff16815260200184815260200183815260200182815260200194505050505060405180910390a16001836000540103600054945094505050509091565b600080838310151515610ae257600080fd5b836001858503014233600254604051808481526020018373ffffffffffffffffffffffffffffffffffffffff1673ffffffffffffffffffffffffffffffffffffffff166c010000000000000000000000000281526014018281526020019350505050604051809103902060019004811515610b5957fe5b0601905080915050929150505600a165627a7a72305820a7b7df06c6a903aadf6a7e5bb8cafbfd73b32bed8e85bb592324d5f8292e67ca0029",
  "source": "pragma solidity ^0.4.24;\n\nimport \"./library/SafeMath.sol\";\n\ncontract Lottery {\n\n    //////////////////////回调事件//////////////////////\n\n    event buyCards(address adr, uint value, uint start, uint end);\n    event win(address adr, uint id, uint level, uint bonus);\n    event sendBonusLog(address adr, uint amount);\n\n    //////////////////////私有成员//////////////////////\n\n    uint private keysLeft = 100000;\n    uint private _keyPrice = 0.01 ether;\n    uint private randNonce = 0;\n\n    struct Rule{\n        uint level;\n        uint bonus;\n    }\n    Rule[] private rules;\n\n    struct ScratchCard{\n        address adr;\n        uint number;\n        uint drew;\n    }\n    mapping(uint => ScratchCard) private cardList;\n    mapping(address => uint) private balanceList;\n\n    address private owner;\n\n    constructor() public{\n        owner = msg.sender;\n        rules.push(Rule(1,190 ether));\n        rules.push(Rule(10,10 ether));\n        rules.push(Rule(100,1 ether));\n        rules.push(Rule(1000,0.1 ether));\n        rules.push(Rule(2000,0.05 ether));\n        rules.push(Rule(10000,0.02 ether));\n        rules.push(Rule(20000,0.01 ether));\n    }\n\n    //////////////////////公有方法//////////////////////\n\n    function getKeysLeft() public returns(uint){\n        return keysLeft;\n    }\n\n    function getCards(uint id) public returns (bool,uint,uint){\n        if(msg.sender==cardList[id].adr){\n            return (true,getLevel(cardList[id].number),cardList[id].drew);\n        }\n        else{\n            return (false,0,1);\n        }\n    }\n\n    function getLevel(uint randomNum) public returns (uint){\n        uint magicNum = 0;\n        for (uint i = 0; i < rules.length; i++) {\n            if(randomNum > magicNum && randomNum <= magicNum + rules[i].level) {\n                return i+1;\n            }\n        }\n        return 0;\n    }\n\n    function getBalances() public returns(uint){\n        return balanceList[msg.sender];\n    }\n\n    function topUp() payable public returns(uint,uint){\n        uint acquiredKeys = msg.value / _keyPrice;\n        require(acquiredKeys <= keysLeft);\n        for (uint i = 0; i < acquiredKeys; i++){\n            uint randomNum = getRandomNum(1, keysLeft);\n            keysLeft = keysLeft - 1;\n            cardList[keysLeft] = ScratchCard(msg.sender,randomNum,0);\n        }\n        emit buyCards(msg.sender, msg.value, keysLeft+acquiredKeys-1,keysLeft);\n        return (keysLeft+acquiredKeys-1,keysLeft);\n    }\n\n    function scratchCard(uint id) public returns(uint,uint,uint){\n        require((0==cardList[id].drew) && (msg.sender == cardList[id].adr));\n        cardList[id].drew = 1;\n        uint level = getLevel(cardList[id].number);\n        if(level!=0){\n            rules[level-1].level = rules[level-1].level -1; // 刮出大奖需要抢，可能被别人抢走\n            emit win(msg.sender, id, level, rules[level-1].bonus);\n            balanceList[msg.sender] = balanceList[msg.sender] + rules[level-1].bonus;\n            return (id, level, rules[level-1].bonus);\n        }else{\n            emit win(msg.sender, id, 0, 0);\n            return (id, 0,0);\n        }\n    }\n\n    // TODO: what if account's eth is not enough\n    function sendBonus(uint amount) payable public  {\n        require(amount <= balanceList[msg.sender] && amount>0);\n        balanceList[msg.sender] = balanceList[msg.sender] - amount;\n        emit sendBonusLog(msg.sender, amount);\n        msg.sender.transfer(amount);\n    }\n\n    // to withdraw eth to owner's account\n    function withdraw(uint amount) payable public {\n        if(msg.sender != owner) {\n            return;\n        }\n        msg.sender.transfer(amount);\n    }\n\n\n    //////////////////////私有方法//////////////////////\n    function getRandomNum(uint start, uint end) private returns (uint) {\n        require(end >= start);\n        uint random = uint(keccak256(now, msg.sender, randNonce)) % (end - start + 1) + start;\n        return random;\n    }\n\n}\n",
  "sourcePath": "D:\\Docs\\myqp\\etherark\\contracts\\Lottery.sol",
  "compiler": {
    "name": "solc",
    "version": "0.4.24+commit.e67f0147.Emscripten.clang"
  },
  "schemaVersion": "2.0.1",
  "updatedAt": "2018-09-26T19:12:01.651Z"
}